:020000040800F2
:10000000B00A0020890100089D240008B1200008E2
:1000100099240008D5020008C12D00080000000046
:100020000000000000000000000000007D26000825
:1000300051060008000000004D260008B126000807
:10004000A3010008A3010008A3010008A301000800
:10005000A3010008A3010008A3010008A3010008F0
:10006000A3010008A3010008A3010008A3010008E0
:10007000A3010008A3010008A30100080506000869
:1000800015060008A3010008A3010008A301000849
:10009000A3010008A3010008A3010008A3010008B0
:1000A000A30100081D270008A3010008A301000800
:1000B0002D270008A3010008A3010008A3010008E0
:1000C000A3010008A3010008A3010008A301000880
:1000D000A3010008D52C0008412D0008A301000849
:1000E000A3010008A3010008A301000800F002F822
:1000F00000F03AF80AA090E8000C82448344AAF188
:100100000107DA4501D100F02FF8AFF2090EBAE885
:100110000F0013F0010F18BFFB1A43F0010318473B
:10012000383C0000583C0000103A24BF78C878C121
:10013000FAD8520724BF30C830C144BF04680C60ED
:10014000704700000023002400250026103A28BF35
:1001500078C1FBD8520728BF30C148BF0B60704739
:100160001FB51FBD10B510BD00F07AF81146FFF79E
:10017000F7FF02F0A1FE00F098F803B4FFF7F2FFDA
:1001800003BC00F09FF80000094880470948004779
:10019000FEE7FEE7FEE7FEE7FEE7FEE7FEE7FEE737
:1001A000FEE7FEE704480549054A064B7047000094
:1001B00019270008ED000008B0040020B00A002054
:1001C000B0060020B00600204FF000020429C0F065
:1001D000128010F0030C00F01B80CCF1040CBCF179
:1001E000020F18BF00F8012BA8BF20F8022BA1EBCB
:1001F0000C0100F00DB85FEAC17C24BF00F8012BB0
:1002000000F8012B48BF00F8012B70474FF00002A7
:1002100000B5134694469646203922BFA0E80C50FC
:10022000A0E80C50B1F12001BFF4F7AF090728BFD7
:10023000A0E80C5048BF0CC05DF804EB890028BF53
:1002400040F8042B08BF704748BF20F8022B11F07C
:10025000804F18BF00F8012B7047704770477047F8
:10026000754600F02BF8AE4605006946534620F06F
:100270000700854618B020B5FFF794FFBDE8204081
:100280004FF000064FF000074FF000084FF0000B52
:10029000AC46ACE8C009ACE8C009ACE8C009ACE8C1
:1002A000C00921F007018D46704710B50446AFF331
:1002B00000802046BDE81040FFF75FBF0048704750
:1002C0003000002001491820ABBEFEE726000200E6
:1002D00070470000FEE700002DE9F04140F20040C9
:1002E000C2F2000004680021204603F011FB30BB7D
:1002F00040F2C008C2F20008D8E90067204603F0C7
:1003000033FA04460D463046394622462B4603F062
:10031000DCFA28B940F20440C2F20000002101607A
:10032000D8E9020122462B4603F0CFFA90BB40F2F7
:100330000440C2F2000000214160BDE8F081204687
:10034000002103F0DEFA002818BFBDE8F08140F27A
:10035000C008C2F20008D8E90067204603F004FA9A
:1003600004460D463046394622462B4603F098FA9D
:1003700040F204460028C2F2000604BF00203060AC
:10038000D8E9020122462B4603F08AFA002804BF6E
:1003900000207060BDE8F08170B582B040F6004486
:1003A000C4F20104A4F580604FF48051002200F0F3
:1003B000C5FB20464FF48051012200F0BFFB2046D0
:1003C0004FF40051002200F0B9FB20464FF4804169
:1003D000012200F0B3FB20464FF40041002200F060
:1003E000ADFB40F26C3400250026C2F2000440F25E
:1003F0000002C4F26145C4F29636C2F20002204601
:1004000000212B46009602F011F940F20C0204F193
:100410004800C2F2000200212B46009602F006F9C5
:1004200002B070BDF0B581B040F21046C2F20006D5
:10043000D6E9000140F60045C4F2010502F032FEA3
:1004400040F20447C2F2000740F26C343A68C2F24C
:1004500000040146204602F039F8D6E9020102F014
:1004600021FE7A68014604F1480002F02FF83E6848
:100470000021304603F04CFA98B928464FF48051D9
:10048000012200F05BFB28464FF40051002200F0EF
:1004900055FB266A0021304603F03AFA18BB304675
:1004A00018E03046002103F02CFA18BB28464FF420
:1004B0008051002200F042FB28464FF400510122F7
:1004C00000F03CFB266A0021304603F01AFA18BB04
:1004D00086F0004003F06AFA40F2FC11C2F200011B
:1004E0000968486325E030460021002603F002FA3F
:1004F000C0B11EE03046002103F0EEF9C8B1284635
:100500004FF48051012200F019FB28464FF40051AE
:10051000012200F013FB0CE030460021002603F01E
:10052000FEF930B940F2FC10C2F200000068266209
:1005300046637E680021304603F0EAF998B9284600
:100540004FF48041012200F0F9FA28464FF40041AF
:10055000002200F0F3FAA56E0021284603F0D8F936
:1005600020BB284618E03046002103F0CAF928BB1A
:1005700028464FF48041002200F0E0FA28464FF46C
:100580000041012200F0DAFAA56E0021284603F0AE
:10059000B8F938BB85F0004003F008FA40F2FC11CE
:1005A000C2F200010968886301B0F0BD284600214D
:1005B000002503F09FF9E0B101B0F0BD3046002105
:1005C00003F08AF90028F7D028464FF48041012231
:1005D00000F0B4FA28464FF40041012200F0AEFAD0
:1005E00001B0F0BD28460021002503F098F900284D
:1005F000E2D140F2FC10C2F200000068A5668563FB
:1006000001B0F0BD80B540F2D800C2F2000000F0A9
:1006100047F880BD80B540F21C10C2F2000000F027
:100620003FF880BDB0B5D0E900CED0E90F4001253C
:1006300005FA00F060600846CCF80430BEF1100FF7
:1006400004BF10460A46CCF80800CCF80C20B0BD18
:1006500070470000EFF3108072B600BFFEE70000A5
:10066000014690F82100022813D10868D1E90FC390
:10067000026822F00E020260026822F001020260AB
:10068000012000FA03F2CCF8042081F821000020B8
:1006900002E0042088630120002281F820207047B6
:1006A00010B50168D0E90FCEDCF800200B685C07BC
:1006B00026D5042404FA0EF4144021D00A689206C8
:1006C00003D40A6822F004020A602F22C4F2020254
:1006D000914240F20402C4F2020259DD3023C4F216
:1006E000020399426CD04423C4F2020399426AD0B7
:1006F0005823C4F2020399426AD14FF480236FE079
:100700009C0729D5022404FA0EF4144024D00A6868
:10071000920606D40A6822F00A020A60012280F8D2
:1007200021202F22C4F20202914240F20402C4F2BC
:10073000020239DD3023C4F20203994256D0442329
:10074000C4F20203994254D05823C4F202039942DE
:1007500054D14FF4003359E01B0758BF10BD082394
:1007600003FA0EF31A4012D00A6822F00E020A6051
:10077000012101FA0EF2CCF80420816380F82110E7
:10078000016B0022002980F8202018BF884710BD87
:100790000823C4F20203994218D01C23C4F20203B6
:1007A000994215D140231BE00823C4F20203994269
:1007B00022D01C23C4F2020399421FD1202325E03A
:1007C0004FF480630CE04FF4804309E0042307E01A
:1007D00002F168044FF08063A14208BF4FF4800328
:1007E0001360C16A0029D2D0884710BD4FF400734E
:1007F0000CE04FF4005309E0022307E002F1680423
:100800004FF00073A14208BF4FF400131360816AD8
:100810000022002980F82020B9D0884710BD0000B0
:10082000014600284FF0010008BF70472DE9F04352
:10083000D1F800C04FF6F873CBF6FD734CF6CD42FD
:100840006344CCF6CC42A3FB02236FF0030707EA14
:1008500093030027C4F2020701F10C09C1E90F73E9
:100860000223D1E9012E99E87002D1F81C8081F8A9
:100870002130DCF8003043F6F077BB431A4342EAFC
:100880000E0222432A43324342EA090242EA0802A4
:10089000CCF8002000228A6381F8210081F8202012
:1008A0000020BDE8F043704710B5044690F82000E2
:1008B000012820D0012084F8200094F8210001288C
:1008C00016D1022084F821000020A063D4F800C0D3
:1008D000DCF8000020F00100CCF800002046FFF713
:1008E000A1FE2068E26A01683AB141F00E010AE017
:1008F000002084F82000022010BD21F004010160D6
:10090000016841F00A0101602068016841F00101BD
:100910000160002010BD0000B0B5044600F014F9DD
:10092000054640F22400C2F200000078611C18BFA6
:10093000044400BF00F008F9401BA042FAD3B0BD48
:100940002DE9F04F82B00E68002E00F0F38041F2E6
:100950000042C4F20102042340F2004E904208BF5C
:1009600003234FF6FF7CC4F2010E00930024012301
:10097000C1F2100C4FF0000A4FF0000941E00125D0
:1009800004F00C030F279F402BEA070705FA03F337
:100990003B4342F826304E6840F20C45F202DEF846
:1009A000082054BF22EA080242EA0802C4F2010504
:1009B000CEF808202A68B30254BF22EA080242EAAD
:1009C00008022A60B303DEF8042054BF22EA0802BA
:1009D00042EA0802F303CEF80420DEF800204FF0CC
:1009E000010354BF22EA080242EA0802CEF80020BE
:1009F0000E680AF1010A36FA0AF204F1040400F062
:100A0000998003FA0AFB16EA0B08F1D04A6862459E
:100A100010DC122A50D8DFE802F0330A41454F4F6C
:100A20004F4F4F4F4F4F4F4F4F4F4F484C00D1F804
:100A30000C9041E04FF6FF75C1F22105AA420FDC90
:100A40000025C1F21105AA421AD00025C1F21205F3
:100A5000AA4215D00025C1F22105AA4210D02BE0F0
:100A60000025C1F22205AA420AD00025C1F23105B3
:100A7000AA4205D00025C1F23205AA421CD100BF0E
:100A80008A6842B1012A14BFC0F814B0C0F810B08F
:100A90004FF0080910E04FF004090DE0CA6802F1B8
:100AA000080909E04FF0000906E0CA6802F10409EC
:100AB00002E0CA6802F10C0922460546B8F5807FBB
:100AC00024BF203A04352E680F279740BE4309FA09
:100AD00002F232432A60CA79D2067FF589AF41F229
:100AE0001803C4F202031A684FEA9A0642F00102A0
:100AF0001A601A6840F6000302F001020192019A9E
:100B0000AEF57E7252F826B0C4F2010398420FD0BF
:100B100040F60043C4F2010398423FF430AF41F283
:100B20000003C4F20103009D984208BF022527E795
:100B3000002525E702B0BDE8F08F0000002A08BFBD
:100B4000090401617047000040F2AC40C2F20000AD
:100B500000687047F0B581B0B0B3044690F83D002E
:100B600028B9002084F83C00204600F0BFF824207B
:100B700084F83D002068016821F0010101600168EE
:100B800041F400410160016821F40041016000F07E
:100B900031FA48F28041C0F21E0140F60012656849
:100BA00088424FF00001C0F23D0248F2A16C4FF0C4
:100BB000000338BF01219042C0F2010C38BF01236D
:100BC000654538BF0B4613B1012001B0F0BD4DF6AD
:100BD0008361C4F21B31A0FB011221684FEA924EDF
:100BE0004B684FF4967623F03F0343EA92434B6001
:100BF00044F6D3530F6A0EFB06F6C1F26203A6FB5E
:100C0000033627F03F03B709654538BF970C7A1CB8
:100C10001A430A62CA6948F2A0674CF6FF73C0F231
:100C20000107BD4222EA030C0AD801386A00B0FB72
:100C3000F2F001306FF31F30042898BF04202BE03E
:100C4000A368A0F1010E9BB119206843BEFBF0F030
:100C50000422013062F31F30000512D09BB119202D
:100C60006843BEFBF0F00422013062F31F3011E054
:100C700005EB4500BEFBF0F001306FF31F300005BF
:100C8000ECD1012008E005EB4500BEFBF0F001309F
:100C90006FF31F3040F4004040EA0C00C861086860
:100CA000D4E9072320F0C000104318430860886887
:100CB00048F2FF3204F10C0790438CCF18431043E5
:100CC000A6698860C86820F0FF0038433043C860D8
:100CD000086840F00100086000202021206484F8AA
:100CE0003D10206384F83E0001B0F0BD10B586B021
:100CF000006845F20041C4F2000188424FF0000054
:100D0000CDE90400CDE9020001D006B010BD41F2EA
:100D10001804C4F20204206802A940F00800206010
:100D2000206800F00800019001984FF44070029094
:100D3000122003900320059040F60040C4F2010009
:100D4000FFF7FEFD0420C4F20100016841F0E061FC
:100D500041F002010160606840F40010606060686A
:100D600000F400100190019806B010BD40F224007C
:100D700040F2AC41C2F20000C2F2000100780A6801
:100D8000104408607047000080B542F20000C4F2D1
:100D90000200016841F010010160032000F066F8D4
:100DA0000F2000F005F800F02BF8002080BD0000B7
:100DB000B0B540F22402C2F2000240F21C011278E7
:100DC000C2F200014FF47A730968B3FBF2F20446F1
:100DD000B1FBF2F1084600F0E7FA0F2C4FF00105E5
:100DE0000CD858B94FF0FF3021460022002500F002
:100DF0002DF840F22800C2F2000004602846B0BD81
:100E000082B041F21800C4F202000168022241F0EF
:100E100001010160016801F001010191019941683E
:100E200041F080514160406800F08050009000988F
:100E30000420C4F20100016862F31A61016002B08B
:100E40007047000080B501F0BDFF80BD70B514464D
:100E50000D46064601F0C6FF2946224601F020FB5A
:100E60000146304601F0C6FF70BD000080B501F0BC
:100E7000D3FF80BD2DE9F04381B0002800F08980C8
:100E800042F20008C4F202080446D8F800000D46F9
:100E900000F0070088420CD2D8F8000020F00700CC
:100EA0002843C8F80000D8F8000000F00700A84266
:100EB0006FD1206841F204098107C4F2020917D5F5
:100EC000410705D5D9F8001041F4E061C9F80010D8
:100ED000010705D5D9F8001041F46051C9F8001098
:100EE000D9F80010A26821F0F0011143C9F80010F0
:100EF000C00745D1D8F8000000F00700A8420CD97F
:100F0000D8F8000020F007002843C8F80000D8F8FF
:100F1000000000F00700A8423BD12068410707D538
:100F2000D9F80010E26821F4E0611143C9F800101B
:100F3000000708D5D9F80000216920F4605040EA84
:100F4000C100C9F8000000F079F8D9F8001043F6A4
:100F50003E52C1F30311C0F60002515C40F21C0284
:100F600020FA01F140F22800C2F200000068C2F24B
:100F700000021160FFF71CFF002001B0BDE8F08304
:100F80006068022809D0012829D159F8041C890376
:100F900007D4012001B0BDE8F08359F8041C890191
:100FA000F7D5D9F8001021F003010843C9F8000073
:100FB000FFF7CAFD064641F2883700BFD9F80000A6
:100FC000616800F00C00B0EB810F93D0FFF7BCFD1F
:100FD000801BB842F2D9032001B0BDE8F08359F874
:100FE000041C8907D5D5DCE740F21C00C2F20000E2
:100FF0000068704780B5FFF7F7FF41F20401C4F2C3
:101000000201096843F64E52C1F30221C0F6000204
:10101000515CC84080BD000080B5FFF7E5FF41F29C
:101020000401C4F20201096843F64E52C1F3C22121
:10103000C0F60002515CC84080BD000041F2040CC3
:10104000C4F2020CDCF8003003F00C00082841F276
:101050000020C0F27A0018BF7047C3F383420AA190
:101060008A5CD90305D440F60010C0F23D0050431D
:101070007047DCF8001008A3C1F34041595C5043AD
:10108000B0FBF1F0704700BF020304050607080932
:101090000A0B0C0D0E0F1010010200002DE9F0419B
:1010A00082B0002800F0C4800446007841F20006B7
:1010B000C007C4F2020643D0706800F00C00042898
:1010C00017D0706800F00C00082802D17068C003C7
:1010D0000FD465682DB1B5F5A02F10D0B5F5803FC0
:1010E00011D0306820F480303060306820F48020E7
:1010F0000CE03068800323D5606808BB98E0306856
:1011000040F480203060306840F480303060FFF779
:101110001BFD002D054610D03068800310D4FFF76A
:1011200013FD401B6428F7D904E100BFFFF70CFD55
:10113000401B64284FF0030077D830688003F5D453
:101140002078800718D5706810F00C0F07D07068F1
:1011500000F00C00082826D17068C00323D4306842
:10116000800702D52069012862D13068616920F0CA
:10117000F80040EAC1003060207800073DD5A06942
:1011800038B30020C4F242200121C0F88014FFF7D8
:10119000DBFC0546706A80072DD4FFF7D5FC401BA9
:1011A0000228F7D9C6E02069002840F20000C4F206
:1011B000422000F0968001210160FFF7C5FC054642
:1011C00030688007D1D4FFF7BFFC401B0228F7D955
:1011D000B0E00020C4F242200021C0F88014FFF7E4
:1011E000B3FC0546706A800707D5FFF7ADFC401BCE
:1011F0000228F7D99EE001F02BFA207840071BD493
:10120000E5698DB1706800F00C00082847D1012D08
:101210000ED07068216A00F480328A4208D1616A77
:1012200000F47010884203D1002002B0BDE8F081C4
:10123000012002B0BDE8F081F06910F0805808D1BB
:10124000F06940F08050F061F06900F0805001904A
:10125000019847F20007C4F200073868C00510D4AF
:10126000386840F480703860FFF76EFC054600BFB8
:101270003868C00505D4FFF767FC401B6428F7D920
:1012800058E0E5681DB1052D3CD0012D3ED0306AF7
:1012900020F001003062306A20F0040039E00027BD
:1012A000C4F2422700203866FFF74EFC022D0546A7
:1012B0000CD100BF3068800154D5FFF745FC401BBE
:1012C00002284FF00300F5D9AFE700BF3068800176
:1012D000AAD5FFF739FC401B02284FF00300F5D9CF
:1012E000A3E700210160FFF72FFC05463068800767
:1012F0007FF542AFFFF728FC401B02284FF00300A8
:10130000F4D992E7306A40F004003062306A40F06D
:1013100001003062FFF718FC002D054641F28837C6
:1013200014D000BF306A800713D4FFF70DFC401BB8
:10133000B842F7D9032002B0BDE8F081FFF704FC02
:10134000401BB8424FF003003FF66FAF306A800792
:10135000F4D4B8F1000F7FF453AFF06920F080505F
:10136000F0614DE7206AB0F5803F05D17168A26851
:1013700021F40031114371607168626A21F47411C3
:1013800010430843706001203866FFF7DDFB044618
:10139000306880013FF548AFFFF7D6FB001B0228FD
:1013A0004FF00300F4D940E780B501F069F980BD42
:1013B000704700007047000010B590F83C20012AEB
:1013C0004FF0020231D0012380F83C3080F83D20FC
:1013D0000268D2F804E0D2F808C00C682EF070035E
:1013E000234340F2FF74C4F20004A242536005DCC0
:1013F000B2F1804F0ED040F2004307E042F60043C6
:10140000C4F201039A4205D040F60003C4F200037F
:101410009A4204D149682CF080031943916001215C
:10142000002280F83D1080F83C20104610BD0000DE
:10143000002804BF0120704710B5044690F83D0015
:1014400028B9002084F83C00204600F01FF8022054
:1014500084F83D002068211D01F070F9012084F816
:10146000460084F83E0084F83F0084F8400084F889
:10147000410084F8420084F8430084F8440084F872
:10148000450084F83D00002010BD000010B582B07A
:101490000068B0F1804F14D042F60041C4F201015F
:1014A000884224D141F21800C4F2020001681924D4
:1014B00041F400610160006800F40060019001984F
:1014C0000DE041F21800C4F2020041681C2441F012
:1014D00001014160406800F0010000900098204642
:1014E00000210022FFF7B2FC2046FFF7ABFC02B060
:1014F00010BD000090F83D1001291CBF012070476D
:10150000022180F83D10006840F2FF72C168C4F209
:101510000002904241F00101C16005DCB0F1804F52
:101520000ED040F2004107E042F60041C4F2010152
:10153000884205D040F60001C4F20001884206D17D
:10154000816801F00701062904BF00207047016887
:1015500041F00101016000207047000010B5044611
:1015600090F83C0001284FF0020008BF10BD012296
:1015700084F83C2084F83D0020684FF67773826839
:101580009A4382600A684F2A0FDC1F2A22DD202A34
:1015900023D0302A21D0402A4DD14B68CA68194641
:1015A00001F0F4F9206840213BE06F2A17DDB2F525
:1015B000005F20D0B2F5805F2AD0702A3BD1D1E9FC
:1015C000012CCB68614601F011F92068816841F077
:1015D00077011AE00AB1102A2DD1114621E0502AD4
:1015E00018D0602A27D14B68CA68194601F0E0F983
:1015F0002068602115E0D1E9012CCB68614601F03B
:10160000F5F82068816841F48041816000200BE09A
:10161000002009E04B68CA68194601F0B7F9206854
:10162000502101F0EFF80020012184F83D10002145
:1016300084F83C1010BD0120F6E70000002804BF2C
:10164000012070472DE9F047044690F83D000D4613
:1016500028B9002084F83C00204600F049F8022018
:1016600084F83D00206844F207028168914381605C
:10167000211D01F063F820684FF6FF7881688269C8
:10168000D0F820C0D5E9003ED5E9026A43EA010955
:10169000AB6922EA080246EA03234FF6FC46B3434D
:1016A000D5E9076742EA0A0229691A4342EA062293
:1016B00042EA01112CF022026B6942EA0E0241EA71
:1016C000073142EA0312C0F80890816102620120EA
:1016D00084F8460084F83E0084F83F0084F8420015
:1016E00084F8430084F83D000020BDE8F087000046
:1016F00080B586B0006840F60001C4F2000188425F
:101700004FF00001CDE90411CDE9021122D040F2E1
:101710000041C4F20001884240D141F21800C4F2F5
:101720000200416841F002014160416801F002019C
:1017300001910199016841F004010160006800F025
:10174000040001900198C020029040F60000C4F20D
:1017500001001DE041F21800C4F20200416841F0AE
:1017600004014160416801F004010191019901689F
:1017700041F008010160006800F008000190019844
:10178000C020029040F60000C4F2010000F5806025
:101790000021CDE9031102A9FFF7D2F806B080BD00
:1017A00010B5044690F83E0094F83F2094F842307B
:1017B00094F843C0042907D089B901284FF00100EB
:1017C00008BF012B23D010BD012A4FF0010008BF34
:1017D000BCF1010FF7D1022084F83F0012E001288C
:1017E0004FF0010008BF012AEDD1012BEBD1BCF174
:1017F000010F18BF10BD022084F83E0084F83F009E
:1018000084F8420084F84300042907D10EE0022046
:1018100084F83E0084F84200042907D009B9002169
:1018200005E020680021012200F0CEFF042120689D
:10183000012200F0C9FF2068016841F00101016048
:10184000002010BD7047000010B504460068016913
:10185000890744BFC1685FEA817138D42068016993
:10186000490744BFC1685FEA41713CD420680169FF
:10187000090744BFC1685FEA017141D4206801696A
:10188000C90644BFC1685FEAC16145D420680169E7
:10189000C9071CBFC1685FEAC1714AD120680169EC
:1018A000090644BFC1685FEA016149D42068016943
:1018B000490644BFC1685FEA416148D420680169B4
:1018C000890644BFC1685FEA816147D410BD6FF0EB
:1018D00002010161012121778069800745D02046FE
:1018E000FFF7B0FF47E06FF00401016102212177AB
:1018F000806910F4407F41D02046FFF7A3FF43E00A
:101900006FF00801016104212177C06980073ED092
:101910002046FFF797FF40E06FF0100101610821BA
:101920002177C06910F4407F3AD02046FFF78AFF44
:101930003CE06FF001010161204600F041F9ADE7A4
:101940006FF0800101612046FFF732FDAEE76FF0D6
:1019500040010161204600F009FAAFE76FF0200175
:1019600001612046FFF726FD10BD204600F04CF82F
:10197000204600F0C7F8002020776FE7204600F0EF
:1019800043F8204600F0BEF8002020776EE720469E
:1019900000F03AF8204600F0B5F8002020776DE717
:1019A000204600F031F8204600F0ACF80020207707
:1019B0006CE7000080B586B00068B0F1804F4FF052
:1019C0000000CDE90400CDE9020001D006B080BDE1
:1019D00041F21800C4F20200016841F00401016004
:1019E000006802A900F00400019001980320029011
:1019F00002200390059040F60000C4F20100FEF7BB
:101A00009FFF06B080BD000070470000B0B50446DF
:101A100090F83C00012804BF0220B0BD0D464FEAFB
:101A2000B2010120032984F83C0037D8DFE801F037
:101A3000020A12222068294600F0ECFE206850F8C5
:101A4000181F0EE02068294600F014FF206850F8A7
:101A5000181F16E02068294600F040FF206850F863
:101A60001C1F41F008010160016821F004010160C0
:101A700029690FE02068294600F062FF206850F8CD
:101A80001C1F41F400610160016821F48061016064
:101A9000296909020268114301600020002184F8CD
:101AA0003C10B0BD002804BF0120704710B50446AB
:101AB00090F83D0028B9002084F83C00204600F052
:101AC0001FF8022084F83D002068211D00F036FE3A
:101AD000012084F8460084F83E0084F83F0084F832
:101AE000400084F8410084F8420084F8430084F800
:101AF000440084F8450084F83D00002010BD00003B
:101B00007047000070470000B0B5044641B1082995
:101B100009D0042914BF04F1410004F13F0004E09E
:101B200004F13E0001E004F14000007801281CBFF0
:101B30000120B0BD022041B1082909D0042914BFF9
:101B400084F8410084F83F0004E084F83E0001E09E
:101B500084F84000206842F644450122C4F20105A1
:101B600000F032FE2068A5F14401884203D12968C3
:101B700041F40041296040F2FF71C4F20001884243
:101B800005DCB0F1804F0ED040F2004107E042F694
:101B90000041C4F20101884205D040F60001C4F2C0
:101BA0000001884206D1816801F00701062904BFBF
:101BB0000020B0BD016841F0010101600020B0BD0E
:101BC0002DE9F04F81B040F29001C2F200010A68A5
:101BD0000446501C0A2808601FD140F2B800C2F227
:101BE00000000068002201280A6016D1206842F631
:101BF0000041C4F2010188420FD10020ADF802007B
:101C000061208DF8020040F21C30C2F200000DF19C
:101C1000020102220A2300F0F5F9206840F2A048F0
:101C2000B0F1804FC2F2000804D1D8F800000130B2
:101C3000C8F80000D8F800000A2840F0948040F26C
:101C4000442240F2FC30C2F20002C2F20000012144
:101C500012680160506A40F2D004C2F200042060B1
:101C6000206848F22103216898424FF6FF7040F245
:101C7000A44B4FF6FF75A8BF491BB8BF00202160D9
:101C80005062C2F2000B2068DBF800100844CBF869
:101C90000000DBF8000001F0D9FB064640F2180016
:101CA00040F22002C2F20000C2F200020068126894
:101CB0000F465043800001F0C9FB81468A463046FA
:101CC00039464A46534601F02BFA40F2C007C2F2A9
:101CD0000007C7E90001206801F0B8FB47F20003E4
:101CE000C4F2A703002201F041FC4A46534601F02A
:101CF00017FA40F21046C2F20006C6E9000140F2AF
:101D00008C20C2F20000006848F22103416A616041
:101D1000616862689942ACBF521B002562604562EF
:101D20006068DBF804100844CBF80400DBF804001A
:101D300001F08CFB4A46534601F0F2F9C7E9020173
:101D4000606801F083FB47F200030022C4F2A7039E
:101D500001F00CFC4A46534601F0E2F9C6E90201E3
:101D60000020C8F8000001B0BDE8F08F7047000007
:101D70007047000010B504460068406994F84110AF
:101D8000212915D110F0800012D000BF206850E842
:101D9000050F216820F0800041E80502002AF5D1F6
:101DA000A06B002818BFFEF75BFC204600F0B2FED7
:101DB0002068406994F84210222915D110F04000A3
:101DC00012D000BF206850E8050F216820F04000C5
:101DD00041E80502002AF5D1E06B002818BFFEF7A4
:101DE0003FFC204600F06EFE002010BD7047000052
:101DF000002804BF0120704710B5044690F8410048
:101E000028B9002084F84000204600F021F8242062
:101E100084F841002068C16821F40051C160204667
:101E200000F086FE2068016921F49041016141695A
:101E300021F02A014161C16841F40051C1600020D4
:101E40002021606484F8411084F84210606310BD62
:101E50002DE9F04186B00446006844F20041C4F226
:101E60000001002788420597CDE90377029753D0F8
:101E700043F60001C4F20101884240F0A68041F21D
:101E80001807C4F20207386840F6000540F48040A5
:101E900038603868C4F2010500F480400190019870
:101EA00038680DF1080840F0040038603868414691
:101EB00000F00400019001984FF40070029002209D
:101EC0000390032005902846FEF73AFD4FF480600A
:101ED0000290002628464146CDE90366FEF730FD14
:101EE00040F2D805A7F57C60C2F200058021C5E963
:101EF00000062846C5E90261C5E90466C5E906662B
:101F0000FEF78EFC002853D0FEF7A4FB40F2D80564
:101F10002526C2F200054EE041F21C00C4F2020088
:101F2000016841F2180541F4003101600068C4F213
:101F3000020500F4003001900198286840F600087E
:101F400040F0040028602868C4F2010800F0040092
:101F5000019001980420029002200390032002AE19
:101F6000059040463146FEF7EBFC0820CDE902071C
:101F7000404631460497FEF7E3FCA5F6AC7040F20C
:101F80001C15C2F200058021C5E900072846C5E9F5
:101F90000271C5E90477C5E90677FEF741FC48B14F
:101FA000FEF758FB40F21C152626C2F2000502E09F
:101FB000252600E02626304600210022E5636C62DB
:101FC000FEF744FF3046FEF73DFF06B0BDE8F08166
:101FD00010B590F84230202B1CBF022010BD002904
:101FE0004FF0010418BF002A01D1204610BD002483
:101FF000046300F0E5FD204610BD000070470000BE
:10200000704700002DE9F041044690F84100202877
:102010001CBF0220BDE8F0810E4600294FF00100F0
:1020200044D01746002A08BFBDE8F0814FF00008F1
:1020300021201D46C4F8448084F84100FEF784FD49
:10204000A784E784A1680746B1F5805F0DD12069B8
:10205000002814BF3046B046064606E016F8010BCD
:1020600021684860E08C0138E084E08C80B1204633
:1020700080213A462B4600F0EFFD80B9002EEDD1CD
:1020800038F8020B21686FF35F2048600026E9E70B
:10209000204640213A462B4600F0DEFD10B10320D9
:1020A000BDE8F081202084F841000020BDE8F081E7
:1020B000FEE7000080B582B041F21400C4F20200D5
:1020C0000168002241F0010101600068002100F078
:1020D0000100019001980F20FEF7B8FE0F20FEF7D7
:1020E000B1FE102000210022FEF7B0FE1020FEF706
:1020F000A9FE02B080BD00002DE9F04786B00027A0
:1021000041F21800CDE90477CDE90277C4F202006C
:10211000016840F6000941F0200101600168C4F245
:10212000010901F0200101910199016809F580651B
:1021300041F0040101600168002201F004010191F5
:10214000019901684FF4704641F008010160006890
:102150004FF4704100F00800019001982846FEF706
:10216000EDFC48464FF4805100224FF48058FEF7B2
:10217000E5FC029602AE4FF0010A022428463146E1
:10218000CDE903A70594FEF7DBFB48463146CDE9D0
:10219000028ACDE90474FEF7D3FB06B0BDE8F087F0
:1021A00080B540F2601045F20041C2F20000C4F276
:1021B000000148F2A06200234FF4804CC0F20102FB
:1021C00080E80E00C0E9033CC0E90533C0E90733ED
:1021D000FEF7C0FC002818BFFEF73CFA80BD0000E7
:1021E00080B586B040F2B41042F600420021C2F23F
:1021F0000000C4F20102472342F20F7CCDE9041132
:10220000CDE90211CDE90011C0E90023C0E9021CAB
:10221000C0E904118161FFF70BF9002818BFFEF730
:1022200019FA4FF48050029040F2B410C2F200004C
:1022300002A9FFF793F9002818BFFEF70BFA002058
:10224000CDE9000040F2B410C2F200006946FFF789
:10225000B3F8002818BFFEF7FDF906B080BD0000F6
:1022600010B58EB040F2FC100021C2F200004FF019
:102270008042472340F2E7340D91CDE90B11CDE9BF
:102280000911CDE90711CDE90511CDE90311CDE91A
:102290000111C0E90023C0E9021401618161FFF767
:1022A000C7F8002818BFFEF7D5F94FF480500A9000
:1022B00040F2FC10C2F200000AA9FFF74FF9002813
:1022C00018BFFEF7C7F940F2FC10C2F20000FFF79A
:1022D000E9FB002818BFFEF7BDF940F2FC1000240E
:1022E000C2F2000008A9CDE90844FFF765F800280C
:1022F00018BFFEF7AFF96020CDE9010440F2FC10F1
:10230000C2F2000001A9002203940594FFF77EFBAE
:10231000002818BFFEF79EF940F2FC10C2F2000040
:1023200001A90422FFF772FB002818BFFEF792F9FB
:1023300040F2FC10C2F20000FFF73CFB0EB010BDF3
:10234000B0B58CB003AC20462421FDF75FFF40F20E
:10235000442040F200410025C2F20000C4F2000116
:10236000C0E9001501214FF6FF72CDE90315CDE953
:102370000515CDE909152146CDE90055C0E9025200
:1023800005618561CDE907550B95FFF757F90028E1
:1023900018BFFEF75FF940F24420C2F20000694620
:1023A000CDE90055FFF708F8002818BFFEF752F9ED
:1023B0000CB0B0BDB0B58CB003AC20462421FDF705
:1023C00025FF40F28C2040F600010025C2F20000FB
:1023D000C4F20001C0E9001501214FF6FF72CDE9FA
:1023E0000315CDE90515CDE909152146CDE90055BF
:1023F000C0E9025205618561CDE907550B95FFF7EC
:102400001DF9002818BFFEF725F940F28C20C2F212
:1024100000006946CDE90055FEF7CEFF002818BF41
:10242000FEF718F90CB0B0BD80B540F2D42043F6E9
:102430000001C2F20000C4F2010100234FF00C0CB5
:102440004FF4E13280E80E00C0E90333C0E905C370
:10245000C361FFF7CDFC002818BFFEF7FBF880BD75
:1024600080B540F21C3044F20041C2F20000C4F2D8
:10247000000100234FF00C0C4FF4E13280E80E0015
:10248000C0E90333C0E905C3C361FFF7B1FC00280D
:1024900018BFFEF7DFF880BDFEE70000FEE7000092
:1024A00000F0070080F00703042B28BF04234FF03F
:1024B000FF3C03380CFA03F338BF002099438140F6
:1024C0000CFA00F022EA000008437047002804BF1D
:1024D000002070472DE9F04F81B0D0E90F56044637
:1024E000C0E91056C0E90621104601F0B3FB21787F
:1024F00007460129E06330D0002940F0938004F1C1
:10250000040999E84202D4F814A0384601F0D6FA3A
:10251000804660623846314601F0D0FAA16A024630
:102520000846114601F04CF90646A062D4E90C01B8
:10253000C4E90D013846294601F08CFB4946206369
:1025400001F0BCFA0546E0623046514601F0D2F98E
:10255000002840D0C4F828A047E03846294601F0BA
:1025600079FBD4E9011BD4E9039801F0A7FA82466C
:1025700060623846594601F0A1FA8346A062D4E968
:102580000C01C4E90D012846294601F019F901465C
:10259000384601F05FFB0146304601F011F949462B
:1025A000206301F08BFA0546E0625046594601F07F
:1025B00007F9294601F004F9216A02460846114646
:1025C00001F0FEF841460546206201F0A1F9E8B9A4
:1025D000C4F8208026E08AF0004A3046514601F0D7
:1025E00090F9002808BFC4F828A0A16A26694046CF
:1025F00001F0E6F80146284601F0E2F831460546CA
:10260000206201F085F920B926620BE088F00046CF
:1026100001E086F000462846314601F072F90028B4
:1026200008BF2662206A01B0BDE8F08F002818BFFD
:10263000002A00D1704701701168416051688160C3
:102640009168009AC0E90313426170477047000027
:1026500081B040F21C00C2F20000006844F6D35181
:10266000C1F26201A0FB0101480A009000BF00987E
:10267000411E00280091F9D101B070477047000059
:10268000B0B501380024B4EB106F1CBF0120B0BD01
:102690004EF21005CEF2000568604FF0FF300F21BA
:1026A00000F0A8FB0720AC6028602046B0BD000009
:1026B00080B5FEF75BFB80BD70B590B006AC2046E0
:1026C0002821FDF7A3FD012006900A904FF4E010A9
:1026D00000254FF4803102260F9020460595CDE964
:1026E0000355CDE90155CDE90715CDE90D61FEF79B
:1026F000D5FC78B90F20CDE901064FF48060CDE913
:10270000040501A802210395FEF7B4FB002804BFCD
:1027100010B070BDFDF79EFF7047000080B540F21D
:10272000B410C2F20000FFF78FF880BD80B540F210
:10273000FC10C2F20000FFF787F880BD10B540F230
:10274000FF7E0368C4F2000E42F6004C7045C4F2EE
:10275000010C05DCB0F1804F0AD040F2004203E0EA
:10276000604505D040F60002C4F20002904203D159
:102770004A6823F070031343704505DCB0F1804FC5
:102780000AD040F2004203E0604505D040F6000266
:10279000C4F20002904203D1CA6823F44073134389
:1027A00023F080024B69D1F800E08C681A43604541
:1027B0000260C462C0F828E002D10969CCF8301088
:1027C0000121416110BD000080B501F01F014FF0F3
:1027D000010CD0F820E00CFA01F32EEA03030362A7
:1027E000036A02FA01F11943016280BDD0F808C002
:1027F00011432CF47F4C41EA032141EA0C01816032
:1028000070470000826822F07002114341F0070116
:1028100081607047B0B5026A036A42F6004423F053
:1028200001030362D0F804E0D0F818C08B6822F0EE
:102830000202C4F20104A04242EA030205D1CB68BD
:1028400022F00C0223F004031A430B68A04207D1C4
:10285000D1E905452EF4407E44EA0E0444EA050E13
:102860002CF073052B43C0F804E083614968416391
:102870000262B0BDB0B5026A036A42F6004423F0BA
:1028800010030362D0F804E0D0F818C08B6822F07F
:102890002002C4F20104A04242EA031207D1CB682D
:1028A0006FF0400522F0C00205EA03131A430B68DB
:1028B000A04207D1D1E905452EF4406E4EEA8404CA
:1028C00044EA850E2CF4E64545EA0323C0F804E00B
:1028D0008361496881630262B0BD0000B0B5026ADD
:1028E000036A42F6004423F480730362D0F804E0E4
:1028F000D0F81CC08B6822F40072C4F20104A0421C
:1029000042EA032207D1CB6840F2FF451B0222F4C2
:102910004062AB431A430B68A04207D1D1E9054599
:102920002EF4405E4EEA041444EA051E2CF07305B2
:102930002B43C0F804E0C3614968C1630262B0BDC3
:10294000B0B5D0F820C0026A42F6004522F48052A9
:1029500002624268C3690C68D1F808E0C4F201055C
:10296000A84204D14D6922F4804242EA851223F440
:10297000E64343EA04234260C3612CF400554968EE
:1029800045EA0E3201640262B0BD0000D0F820C0FA
:10299000036A23F001030362836923F0F00343EA2F
:1029A00002122CF00A031943826101627047000091
:1029B000D0F820C0036A23F010030362836923F474
:1029C000704343EA02322CF0A00343EA0111826112
:1029D0000162704710B5446A2068406994F841105C
:1029E000212907D110F0800004D00020E084204687
:1029F00000F090F82068406994F84210222907D12D
:102A000010F0400004D00020E085204600F05AF885
:102A1000606C40F0100060642046FFF7E7F910BDDD
:102A200080B50168406A096889062FD40021C185F4
:102A3000016851E8031F026821F4807142E8031322
:102A4000002BF5D1016851E8051F026821F0010152
:102A500042E80513002BF5D1016851E8051F026813
:102A600021F0400142E80513002BF5D1202180F828
:102A70004210016B012909D1016851E8031F026866
:102A800021F0100142E80313002BF5D1002141632E
:102A9000016B012903D1818DFFF76AF980BDFFF732
:102AA000ADFA80BD80B5406A01214163016B012907
:102AB00004D1818D4908FFF75BF980BDFFF7A0FACB
:102AC00080BD0000016851E8031F026821F4907185
:102AD00042E80313002BF5D1016851E8051F026895
:102AE00021F0010142E80513002BF5D1016B01290A
:102AF0000AD100BF016851E8031F026821F01001EC
:102B000042E80313002BF5D1202180F84210002168
:102B100001637047016851E8031F026821F0C0019A
:102B200042E80313002BF5D1202180F841107047B3
:102B300010B504460068D4E902C22369016921F492
:102B4000405111430161616943EA0C021143C268BB
:102B500041F20C639A431143C1604169A26921F4B7
:102B60004071114343F60002C4F2010290424161F8
:102B700002D0FEF73FFA01E0FEF74EFA6268192133
:102B800048439100B0FBF1F048F21F51C5F2EB1140
:102B9000A0FB01235A096FF0630302FB03003223F9
:102BA00003EB0010A0FB0101F02303EA511320689E
:102BB00003EB0212C1F343111144816010BD000008
:102BC00070B582B013460025044681628385456452
:102BD000222084F842000A462168E06B42F6212C4C
:102BE00042F6A52E42F6D516C0F6000CC0F6000E31
:102BF000C0F600060431C0E90ACEC0E90C65FDF755
:102C000053FE019520680168019140680190019888
:102C1000206948B1206850E8030F216840F48070B3
:102C200041E80302002AF5D1206850E8050F216829
:102C300040F0010041E80502002AF5D1206850E883
:102C4000050F216840F0400041E80502002AF5D157
:102C5000002002B070BD00002DE9F041044600687C
:102C600000680840884202D10020BDE8F0811D467E
:102C70000E4690465F1C04E0206800683040B04279
:102C8000F2D0002FF8D02DB1FDF75EFFA0EB0800C9
:102C9000A842F1D9206850E8030F216820F4D070D1
:102CA00041E80302002AF5D1206850E8050F2168A9
:102CB00020F0010041E80502002AF5D1202084F827
:102CC000410084F84200002084F840000320BDE861
:102CD000F0810000B0B582B040F2D420C2F2000012
:102CE00000680168C90629D500210191016840F2F8
:102CF000D42401914068C2F200040190019820465A
:102D0000FFF738F840F2D800C2F20000006840F245
:102D100064354068C2F20005C0F12100287000F05F
:102D2000A9F8297840F29405C2F200052846FDF77B
:102D30004BFA204629462122FFF74AF902B0B0BDDE
:102D400010B582B040F21C30C2F200000068016889
:102D5000C90633D5002101910168019140680190B5
:102D6000019840F21C30C2F20000FFF703F840F275
:102D70001C10C2F20000006840F2B802C2F2000269
:102D8000406812686FF07F0140F26534081A012A2A
:102D9000C2F20004207008BF00F056F9217840F21A
:102DA0002044C2F200042046FDF70EFA40F21C3027
:102DB000C2F2000021468022FFF70AF902B010BDDE
:102DC000FEE70000002848BF704700F01F01012205
:102DD00002FA01F14EF200124009CEF2000242F86E
:102DE000201070474EF60C50CEF200000068C0F381
:102DF000022070474EF6145300F00F02CEF200038B
:102E000009011A4400F16043B0F1FF3FC8BF03F568
:102E100064421170704700004EF60C51CEF2000172
:102E20000A684FF6FF031A4060F30A2242F08060FE
:102E300040F0FD7008607047B0B540F6000403250F
:102E4000C4F2010420464FF480510122FDF776FEC2
:102E50004FF4FA70FDF760FD20464FF480510022D8
:102E6000FDF76CFE4FF4FA70FDF756FD013DE9D118
:102E7000B0BD000040F29400C2F200000078A0F162
:102E80004501122988BF70470120DFE801F00A14CC
:102E9000141414141414141414140F0C14141414FF
:102EA0000E00032002E0042000E0022040F268311E
:102EB000C2F2000108607047FDF766FFFFF7FCFBF8
:102EC000FDF76AFAFFF718F9FFF7F4F8FFF768F96A
:102ED000FFF786F9FFF7C4F9FFF732FAFFF76AFA4E
:102EE000FFF7A2FAFFF7BCFA40F2D420C2F20000CA
:102EF0000168CA6842F01002CA6040F29401C2F24E
:102F000000012122FFF764F840F21C30C2F20000F9
:102F10000168CA6842F01002CA6040F22041C2F261
:102F200000018022FFF754F840F24420C2F2000072
:102F30003C21FEF735FC40F28C20C2F200003C211F
:102F4000FEF72EFC40F2B414C2F200042046FEF755
:102F5000D1FA40F2FC15C2F200052846FEF7CAFA83
:102F6000284600210026FEF7CFFD28460421FEF763
:102F7000CBFD20460021FEF7C7FD20460C21FEF7C1
:102F8000C3FD40F2683440F2044540F2B807C2F293
:102F90000004C2F200054FF07C58C2F200074FF067
:102FA000010920680428FCD8DFE800F018031D2E72
:102FB00047004FF4FA60FDF7AFFCFFF73DFF4FF419
:102FC000FA60FDF7A9FCC5E90088FDF72BFAFDF7CB
:102FD00083F9FFF731FF2660C5E90066FDF722FAA5
:102FE000FDF77AF9DDE74FF4FA60FDF795FCFFF79E
:102FF00023FF4FF4FA60C7F80090FDF78DFC3E60A8
:10300000FFF71AFF2660CCE74FF47A70FDF784FCD7
:10301000C5E90088FDF706FAFDF75EF941F2883050
:10302000C7F80090FDF778FC3E60C5E90066FDF743
:10303000F9F9FDF751F92660B3E74FF47A70FDF71F
:103040006BFC2660ADE7000080B540F22040C2F284
:103050000000007830280DD0322811D0312818BF58
:1030600080BD49F69A1049F69A11C3F61960CBF65D
:1030700019610DE049F69A11C3F61961084607E097
:1030800049F69A1049F69A11CBF61960C3F6196100
:1030900040F20442C2F20002C2E90010FDF7C2F998
:1030A00080BD000021F0004201F00043A2F1605217
:1030B000B2F5801F28BFD2F17F6C0BD95FEA001CEC
:1030C00043EAC20242EB507018BF704728BF20F09D
:1030D00001007047B2F5801FBCBF184670474FEA29
:1030E000410C1CF5001F02D2084600F0AEBD70B5C1
:1030F00000F0E6FA00000089FFF7F6BF4FF000404D
:10310000A0F580007047491058BFC1F140415B10E5
:1031100058BFC3F140438B42EFF30080704700007B
:103120002DE9C04130B4DFF8A4C23CEA111418BF45
:103130003CEA131400F0ED801CEA111481EA030547
:1031400044EAD57418BF1CEA131500F0C880A4EB3C
:10315000050404F17F7404F500344FF0004545EA9E
:10316000C12145EAC32341EA505143EA52534FEA91
:10317000C0204FEAC222994208BF904200F09D80D1
:103180004FEA13650FF24416765D4FEA134506FBCE
:1031900005F7C7F1807706FB07F74FEAD737A7FB9C
:1031A00003687642A7FB06CEC8F5803838BFA8F181
:1031B000010807FB08E6A6FB028C4FF0000EE6FBB9
:1031C00003CEDCF1000CCEF1004E38BFAEF1010EA3
:1031D000A6FB0C584FF00007E6FB0E87A1FB08C6C4
:1031E000A0FB07CE16EB0E064FF0000545F10005DB
:1031F000E1FB076515F1E04E7EBFA4F580345FEA80
:1032000046066D4116F1800745F100054FEA172784
:1032100047EA05674FEA15254FEA0666A6F1DE463E
:10322000B6F1805F20D9384605EBC47124F0010C5B
:1032300001EB0C11BCF1FE6F02D8F0BCBDE80081BF
:1032400024425CBF01F5801E9EEAC47F02D4F0BC1C
:10325000BDE80081244200F13980A1F1C041F0BCF9
:10326000BDE8004100F07ABA4FEAD02040EA415070
:103270004FEAD1214FEAD22242EA43524FEAD32306
:10328000A7FB028607FB036605FB02661EEA0E0F1C
:1032900058BFA6EB0056B6EB00564FEA520E4EEA68
:1032A000C37E18EB0E0E56EB530EBCD518EB02087E
:1032B0005E417F1C55F10005B5E74FF480154FF0D6
:1032C00000074FF000064FF00008ACE701F1C041E5
:1032D00001F000414FF00000F0BCBDE800810CEAB5
:1032E000131511EA0C1F00D00CE013EA0C1F00F0BC
:1032F00026804FF0000081EA030101F00041F0BC9C
:10330000BDE80081F0BCBDE8004181EA030100F0A6
:1033100025BAF0BCBDE8004170B500F0D1F900BF9E
:10332000097EFC3E00F007B84FF0000081EA03017F
:1033300001F00041704781EA030100F00FBAF0BCD0
:10334000BDE8004122494FF000007047FFFDFBF946
:10335000F7F5F4F2F0EEEDEBE9E8E6E4E3E1E0DEC8
:10336000DDDBDAD8D7D5D4D3D1D0CFCDCCCBCAC83A
:10337000C7C6C5C4C2C1C0BFBEBDBCBBBAB9B8B761
:10338000B6B5B4B3B2B1B0AFAEADACABAAA9A8A854
:10339000A7A6A5A4A3A3A2A1A09F9F9E9D9C9C9B22
:1033A0009A999998979796959594939392919190CD
:1033B0008F8F8E8E8D8C8C8B8B8A8989888887875E
:1033C0008685858484838382828181800000FF07D3
:1033D0000000F87F51EA030C17D41CF5801F58BF7A
:1033E000BCF5801F00F10680994218BF704708BFE6
:1033F0009042704707D711F5801F58BF13F5801F03
:1034000019D499427047894270471CF5801F08D52E
:10341000BCF5801FF7D58B4218BF704708BF8242AA
:1034200070474FF4001C1CEB410F38BF1CEB430FDF
:1034300001D28B42704770B500F042F992244900E6
:103440004FF000514FF08053FFF75DBE10F0004287
:1034500048BF4042B0FA80F310FA03F10AD0C3F13A
:103460001D0303F5806302EB03524FEA415002EB68
:10347000D12170474FF000007047000051EA030C63
:1034800017D41CF5801F58BFBCF5801F00F10680C3
:10349000994218BF704708BF9042704707D711F58F
:1034A000801F58BF13F5801F19D499427047894275
:1034B00070471CF5801F08D5BCF5801FF7D58B42DF
:1034C00018BF704708BF824270474FF4001C1CEBC6
:1034D000410F38BF1CEB430F01D28B42704770B5D0
:1034E00000F0EEF8922449004FF080514FF0005365
:1034F000FFF709BE51EA030C17D41CF5801F58BF13
:10350000BCF5801F00F10680994218BF704708BFC4
:103510009042704707D711F5801F58BF13F5801FE1
:1035200019D499427047894270471CF5801F08D50D
:10353000BCF5801FF7D58B4218BF704708BF824289
:1035400070474FF4001C1CEB410F38BF1CEB430FBE
:1035500001D28B42704770B500F0B2F89224490056
:103560004FF000514FF08053FFF7CDBD70B5DFF83D
:1035700048C11CEA111E1EBF1CEA13159EEA0C0F5F
:1035800095EA0C0F00F06F8081EA03044EEAD47EC6
:10359000AE4421EA4C1123EA4C1341F4801143F468
:1035A0008013AEF17F7EA1FB024CA0FB03653619B0
:1035B00055EB0C05A1FB034C4CF10003A0FB021CD6
:1035C00016EB0C06654153F10003094218BF46F0A3
:1035D000010613F4007F0BD14FEA03314FEA0530A7
:1035E00041EA155140EA165034036FF003020AE035
:1035F0004FEAC3214FEAC52041EA555140EA5650EF
:10360000F4026FF0020202EB2E4201EB025585EA52
:10361000CE710AD05FEA440C18BF24F0004450F188
:10362000000041F1000120EAD47040F2FE7C6245C6
:1036300000D270BDA84214BF4FF080444FF0404408
:10364000002E08BF0024BEF1806FA8BFA1F1C041C9
:10365000BDE8704080F2828001F1C04101F000417C
:103660004FF0000070470CEA13159EEA0C0F18BFCC
:1036700095EA0C0F06D081EA030E4FF000000EF021
:10368000004170BD00F01CF88900013E00F007B851
:1036900000F009B84FEA430C5FEA5C5C08D081EAAD
:1036A000030100F05BB84FEA410C5FEA5C5CF6D1C5
:1036B00002494FF0000070470000FF070000F87F4C
:1036C0000EF1020E2EF0030E5EF8046B364205D4A6
:1036D000012A43EB030515F5001F12D8012841EB21
:1036E000010C1CF5001F0CD80ED14FEAD17C0CEB5D
:1036F0004C0C0CF1020C15F5001F08BF4CEBD37CF1
:1037000004E04FF0080C01E04FEAD37C0CEB4C05D1
:1037100026FA05F606F00706B6F1040C06D20EEB03
:10372000860CBDE870404CF0010C6047DFE80CF0FF
:10373000090B02024FF00041A1F500214FF00000FB
:1037400070BD19461046012851EB010418BFD4F58D
:10375000001484BF002001F0004170BD0808A0F5EE
:1037600000114FEA3101704743004FEAD30C4FEA92
:103770003C0C43401FBF40070CF1605113F0FE4F5B
:1037800070471CF0006F03D10CF00041002070471F
:103790000CF0004343EA507040EACC0010B500F052
:1037A0000EFA00BF000000924FEA0001FFF7D6BFFB
:1037B0004FF00041A1F500214FF0000070470000DC
:1037C00090EA010F48BF81F0004100F14A82421A9D
:1037D0003CBF801A89184FEAD052A2EBD1534FF068
:1037E0007F4C1CEA410F18BF9CEA026F00F03B803F
:1037F0004FF0004C4CEA00204CEA012121FA03FC76
:1038000010EB0C0C1ED202F1FF325FEA1C2040EBE1
:10381000C25038BF70471CF07F0F4FEA400C18BFF2
:10382000BCF17F4F38BF7047C3F12003994008BFF8
:1038300020F00100BCF17F4F38BF7047A0F1C040BD
:1038400000F003BA4FEA3C00000A40EBC25028BF28
:103850001CF0FF0F4FEA400CE6D018BFBCF17F4FC1
:1038600038BF7047EAE79CEA026F05D010EA5C0FA8
:1038700008BF00F00040704710B500F0A0F900BF8D
:1038800064FBBE3E10B5FFF7A5FD0CBF0120002074
:1038900010BD10B5FFF79EFD14BF0120002010BD24
:1038A00010B5FFF7EBFD8CBF0120002010BD10B557
:1038B000FFF7E4FD2CBF0120002010BD10B5FFF77D
:1038C00019FE94BF0120002010BD10B5FFF712FEB5
:1038D00034BF0120002010BD10B500F033F80CBF3C
:1038E0000120002010BD10B500F02CF814BF0120FD
:1038F000002010BD10B500F079F88CBF0120002029
:1039000010BD10B500F072F82CBF0120002010BDD2
:1039100010B500F09FF894BF0120002010BD10B535
:1039200000F098F834BF0120002010BD401058BFAF
:10393000C0F14040491058BFC1F140418142EFF30E
:103940000080704750EA010C00F113801CF5000F55
:1039500058BFBCF5000F01D48842704707D710F557
:10396000000F58BF11F5000F15D4884270478942E7
:1039700070471CF5000F04D5BCF5000FF7D5814248
:1039800070474FF0807C1CEB400F38BF1CEB410FA1
:1039900001D28142704710B500F011F9922449001C
:1039A0004FF000504FF08051FFF7C0BFC10DD1F173
:1039B0009E0206DB4FEA002343F0004323FA02F0A5
:1039C0007047004207D54FEA4001B1F1FE4F02D2E5
:1039D0004FF00000704710B500F0F1F849922480D4
:1039E000002070476FEA20007047000050EA010C89
:1039F00000F113801CF5000F58BFBCF5000F01D477
:103A00008842704707D710F5000F58BF11F5000F17
:103A100015D488427047894270471CF5000F04D5C1
:103A2000BCF5000FF7D5814270474FF0807C1CEB4E
:103A3000400F38BF1CEB410F01D28142704710B5D7
:103A400000F0BDF8922449004FF080504FF0005133
:103A5000FFF76CBF50EA010C00F113801CF5000F5A
:103A600058BFBCF5000F01D48842704707D710F546
:103A7000000F58BF11F5000F15D4884270478942D6
:103A800070471CF5000F04D5BCF5000FF7D5814237
:103A900070474FF0807C1CEB400F38BF1CEB410F90
:103AA00001D28142704710B500F089F89224490094
:103AB0004FF000504FF08051FFF738BF4FF47F0CAC
:103AC0001CEAD0121EBF1CEAD11392EA0C0F93EA33
:103AD0000C0F00F0478090EA010F48BF42F480725B
:103AE0004FF0004C4CEA00204CEA012102EB0302AB
:103AF000A0FB0113A2F50002002918BF43F0010347
:103B00005B0028BF4FEA330342EB22425FEA132CEB
:103B10004CEBC2502EBFBCEB436FB2F57C0F70472D
:103B20004FEA036CBCF1004F08BF20F00100B2F572
:103B30007C0F38BF70470BD582F0FF0212F5803F33
:103B4000C8BF704700F1C040D8BF00F000407047C8
:103B500000F5000C5FEA4C0C48BF7047B0F1C04064
:103B600000F073B80CEAD11390EA010F48BF42F499
:103B70008072624538BF634504D280EA010000F0DC
:103B80000040704710B500F01AF800BF8900013EF0
:103B900000F007B800F009B85FEA410C5FEA1C6C5E
:103BA00008D080EA010000F050B85FEA400C5FEAFC
:103BB0001C6CF6D14FF00040A0F5800070470EF16C
:103BC000020E2EF0030E5EF8044B244204D44FEA9A
:103BD0004102B2F17F4F11D84FEA4003B3F17F4F5A
:103BE0000CD80ED14FEAD07C0CEB4C0C0CF1020C33
:103BF000B2F17F4F08BF4CEBD17C04E04FF0080CD2
:103C000001E04FEAD17C0CEB4C0324FA03F404F0FE
:103C10000704B4F1040C06D20EEB840CBDE810408E
:103C20004CF0010C6047DFE80CF0070802024FF08F
:103C30000040A0F5800010BD0846420018BFD2F138
:103C4000807288BF00F0004010BDFF2141EAD050D3
:103C5000C005704790EA010F48BF81F000413FF571
:103C6000B6AD421A04D882F00042A0EB0200114423
:103C70004FEAD052A2EBD1534FF07F4C1CEA410FD8
:103C800018BF9CEA026F4AD04FF0004C4CEA00206B
:103C90004CEA012121FA03FCB0EB0C0C0FD412F01A
:103CA000FE0F36D05FEA4C001DD5001240EBC2502B
:103CB00038BF70471CF03F0F18BF70470BE05FEA3A
:103CC0001C20A2F1010240EBC25038BF70471CF02B
:103CD0007F0F18BF7047C3F12003994014BF401EE7
:103CE00020F0010070474FEA1223800808BF704798
:103CF000B0FA80FCA2EB0C02CCF1280C60FA0CF0BC
:103D000093EA122F04BF00EBC25070474FEAC37012
:103D10007047130A5FEADC1008BF7047F6E79CEAB9
:103D2000026F04D010EA5C0F08BF0020704710B586
:103D3000FFF745FF40DFF63E81F00040704700008E
:103D4000000000000000010203040607080900004B
:103D50000000010203040000783D0008000000207C
:103D60003000000028010008A83D000830000020B5
:103D7000800A000044010008000016440000C84109
:103D800000001643000016440000C841000016431E
:103D9000F40100000024F4001E00000001000000F7
:083DA00010000000000000000B
:04000005080000ED02
:00000001FF
